:020000040800F2
:10000000B032002081020008CB3E00080B3C000803
:10001000C93E0008C9190008ED48000800000000AA
:10002000000000000000000000000000A1410008E6
:10003000071A000800000000ED3E0008A341000878
:100040009B0200089B0200089B0200089B0200081C
:100050009B0200089B0200089B0200089B0200080C
:100060009B0200089B0200089B020008CD190008B3
:100070009B0200089B0200089B0200089B020008EC
:100080009B0200089B0200089B0200089B020008DC
:100090009B0200089B0200089B0200089B020008CC
:1000A0009B0200089B0200089B0200089B020008BC
:1000B0009B020008994200089B0200089B0200086E
:1000C0009B0200089B0200089B0200089B0200089C
:1000D0009B0200089B0200089B020008E148000800
:1000E0009B0200089B0200089B0200089B0200087C
:1000F0009B0200089B0200089B0200089B0200086C
:100100009B0200089B0200089B0200089B0200085B
:100110009B0200089B0200089B0200089B0200084B
:100120009B0200089B0200089B0200089B0200083B
:100130009B0200089B0200089B0200089B0200082B
:100140009B0200089B0200089B0200089B0200081B
:100150009B0200089B020008813C00089B020008EB
:100160009B0200089B0200089B0200089B020008FB
:100170009B0200089B0200089B0200080000000090
:100180009B0200089B0200089B0200089B020008DB
:100190009B0200089B0200089B0200089B020008CB
:1001A0009B0200089B0200089B0200084B1C012BCD
:1001B00098BF70472DE9F003911C9B08B1F80480AB
:1001C000B1F802900A8831F802CC8044814402449C
:1001D0008444D9F80070D8F800601568DCF8004055
:1001E000C9F80060C8F80070CCF800501460D9F865
:1001F0000470D8F804605568DCF80440C9F804605D
:10020000C8F80470CCF80450546008315B1ED5D196
:10021000BDE8F00370474B1C012B98BF70472DE9D8
:10022000F003911C9B08B1F80480B1F802900A8891
:1002300031F802CC00EB580800EB590900EB5202F0
:1002400000EB5C0CD9F80070D8F800601568DCF899
:100250000040C9F80060C8F80070CCF80050146085
:1002600008315B1EDFD1BDE8F0037047DFF80CD02A
:1002700001F0C8FA00480047B55A0008B032002023
:100280000648804706480047FEE7FEE7FEE7FEE730
:10029000FEE7FEE7FEE7FEE7FEE7FEE75542000861
:1002A0006D0200089FED1A1AF5EE000A40EE010AF1
:1002B000BDEEE00AF5EEC00A10EE100AF1EE10FAFB
:1002C00038BF401E00EE100A1349F7EE001AB8EED0
:1002D000C00A30EEC00ADFED0F0A20EE200AFCEE65
:1002E000C00A10EE900AC0F3080000EE900A01EB7D
:1002F0008000F8EE600A90ED011A70EE600A90ED51
:10030000000A71EEE01A21EE800A00EE810A7047C1
:1003100083F9223E0000004464710008B5EEC00A73
:10032000F1EE10FA07D2DFED1E0AB4EEE00AF1EEAC
:1003300010FAA8BF7047DFED1B0AB5EEC00A60EEE9
:10034000200ABDEEE01A11EE100AF1EE10FA38BFE5
:10035000401E00EE100A1549F7EE001AB8EEC00A6A
:1003600030EEC00ADFED100A60EE200ABCEEE00AB3
:1003700010EE100AC0F3080000EE100A01EB800036
:10038000B8EE400A90ED011A70EEC00A90ED000A36
:1003900071EEE01A21EE800A00EE810A704700003B
:1003A000CD024CB483F9223E000000446471000881
:1003B0009FED3D0A5FEA920C57D000BFD0ED000AD6
:1003C00090ED011A0B1D60EEA00A083041EE010A03
:1003D000F5EEC00AF1EE10FAA6BFB1EEE01A81ED1B
:1003E000001A81ED000AD0ED000A90ED011A191DE6
:1003F00060EEA00A083041EE010AF5EEC00AF1EE07
:1004000010FAA6BFB1EEE01A83ED001A83ED000AE0
:10041000D0ED000A90ED011A0B1D60EEA00A083025
:1004200041EE010AF5EEC00AF1EE10FAA6BFB1EEF8
:10043000E01A81ED001A81ED000A90ED001AD0ED6E
:10044000010A191D21EE011A083000EEA01AB5EEBE
:10045000C01AF1EE10FAA6BFF1EEC10AC3ED000A10
:1004600083ED000ABCF1010CA8D112F0030208BF11
:10047000704700BFD0ED000A90ED011A0B4660EE08
:10048000A00A091D083041EE010AF5EEC00AF1EE9E
:1004900010FAA6BFB1EEE01A83ED001A83ED000A50
:1004A000521EE7D170470000000000002DE9F04126
:1004B00006462DED028B8C460088736801EB8004A4
:1004C0004508274601EB850004EB85025FEA9508A5
:1004D0007DD000BFD1ED003AD4ED001A91ED012A94
:1004E00094ED013A73EEA16A91ED024A91ED031A7F
:1004F000D4ED022AD4ED035A90ED008A90ED017AF2
:1005000090ED020A90ED036A92ED005AD2ED014A95
:10051000D2ED027AD2ED030AC1ED006A72EE036AEF
:1005200073EEE13A74EEC71AC1ED016A74EE226A05
:1005300074EE622A37EEC04AC1ED026A71EE256A96
:10054000C1ED036A72EE436A31EE652A38EE051A90
:1005500035EE483A80ED001A37EE241A80ED011A84
:1005600030EE271A80ED021A36EE201A80ED031ABB
:1005700030EEC61A93ED000AD3ED010A63EE804A0D
:1005800026EEA05A66EE805A63EEA03A74EE854AD3
:1005900075EEE33AC4ED004A63EE204AC4ED013A39
:1005A00061EE803A61EEA00A23EE000A74EEE31ACF
:1005B00030EE800AC2ED001A82ED010A93ED020AC4
:1005C000D3ED030A62EE803A22EE203A00E024E006
:1005D00062EEA01A22EE002A73EE832A1030103148
:1005E00072EE611AC4ED022A24EE202AC4ED031A29
:1005F00061EE001A61EE200A24EE000A103332EE9A
:10060000611A103430EE800A82ED021A82ED030A7C
:100610001032B8F101087FF45DAF2946022360462D
:10062000726800F0D9FA72682946BDEC028B384630
:10063000BDE8F041022300F0CFBA2DE9F34F2DEDD4
:10064000048B87B00B980088470801EB870000EB0C
:10065000870606EB8705CDE90056DDF82C80A5F16D
:10066000040C0CEB8703CDE902014FEA5709D8F8D7
:1006700004800427CDE90497D1ED000A96ED000A25
:1006800090ED011A95ED013A70EE802A70EEC03AB5
:10069000D1ED010A96ED010A041F321F30EE802AC7
:1006A00070EEC01A31EE230AD0ED000A32EE415A44
:1006B00033EEC11A30EE434A71EEE04A95ED000A7E
:1006C00070EEA11A35EE435A74EE805A72EEE04A8B
:1006D00070EEA20A71EEC01A31EE031A74EEC04A2F
:1006E00030EE800A062708F1080A81ED000A90ED35
:1006F000010AD5ED010A08F1100B30EE020A08F1EB
:10070000180830EE200A81ED010A80ED004AC0EDA4
:10071000015AC6ED004A86ED015A85ED001AC5ED75
:10072000011ADDF810900830083108350836A9F1B3
:1007300002095FEA590900F0078100BFD1ED000A04
:1007400096ED000AD0ED011AD5ED014A30EE802A6F
:1007500030EEC05AD1ED010A96ED010A70EE802A02
:1007600030EEC01A31EE850AD5ED000A30EE644A4B
:1007700090ED000A31EE403A30EE011A73EE205A45
:1007800032EE403A30EE020A31EE601A73EE603A11
:1007900030EE200A32EEE13A75EE611A81ED000A80
:1007A00090ED010AD5ED010A33EE643A30EE220AEB
:1007B00071EEA41A30EE200A81ED010AD4ED002A70
:1007C000DCED004A54ED010A1CED010A32EEA47A78
:1007D00032EEE49A72EEE42A52ED018A70EE807AEB
:1007E00030EEC02A72EEE82AD2ED000A93ED000A3C
:1007F00013ED018A30EEC05A72EE886A77EEE82A6D
:1008000035EE026A32EEC85A77EE602A72EEC04ABE
:1008100070EEC02A70EE870A72EEC22A30EE800AAD
:1008200038EE682A84ED000A12ED010A53ED010A40
:1008300032EE492A30EE270A30EE200A04ED010A92
:100840009AED000ADAED010A64EE007A25EEA07A4C
:1008500065EE805A24EE204A37EE877A35EEC44A98
:1008600080ED007A80ED014A26EEA04A66EE005A3D
:1008700066EE200A26EE800A083034EE654A08311A
:1008800030EE800A82ED004A083C02ED010A9BED41
:10089000000ADBED010ADDF814E023EE804A63EE86
:1008A000205A23EE003A63EEA03A083A34EE254A85
:1008B0000BEB8E0B33EE633A86ED004A0AF1080A21
:1008C00086ED013AB1EE643A083663EE003A25EE61
:1008D000203A25EE000A64EEA00A33EEC33A30EE69
:1008E000C00A8CED003A0CED010A98ED000AD8ED33
:1008F000010A08EB870861EE803A21EE203A21EEEA
:10090000001A61EEA01AACF1080C33EE833A31EE16
:10091000611A85ED003A62EE801A85ED011A22EE29
:10092000201A62EEA00A22EE000A083531EE611AA2
:1009300030EE800A83ED001A03ED010A083BB9F19D
:1009400001097FF4FBAE00BFD1ED000A96ED000A6D
:1009500091ED011AD0ED015A30EE802A70EEC00AF6
:1009600096ED010A95ED015A042371EE001A71EE1D
:10097000404A35EEA00A90ED001A31EEE54A70EEDD
:10098000E50A30EE453A95ED000A34EE454A30EE80
:10099000855A74EEC12A72EE413A71EE240A31EEA4
:1009A000021A72EE802A73EEC03A70EEC00A31EE7F
:1009B000000A81ED000A90ED010A95ED011A30EE72
:1009C000210A30EE010A81ED010A9AED000A9AED42
:1009D000011A63EE001A22EE812A22EE800A23EE2B
:1009E000011A71EE821A30EE410AC0ED001A80ED54
:1009F000010A9BED000A9BED011A63EE801A24EEBA
:100A0000012A24EE000A23EE811A71EE821A30EEDA
:100A1000410AC6ED001A86ED010A98ED010A98ED2B
:100A2000001A60EE801A25EE012A60EE810A25EE9A
:100A3000000A32EE211A30EEC00A85ED001A85ED6B
:100A4000010A0B984268DDE9030100F0C5F80B9834
:100A5000042304994268029800F0BEF80B9804231E
:100A600004994268019800F0B7F80B9804990423A0
:100A70004268009807B0BDEC048B02B000F0A7B844
:100A800000F0AAB82DE9F0410488984617460D46B3
:100A90000646012A20D1281DF4B1A0F1080114F066
:100AA000010F06D091ED020AB1EE400A81ED020A73
:100AB00008315FEA540C0FD091ED020AB1EE400A02
:100AC00081ED020A91ED040AB1EE400A81ED040ABB
:100AD0001031BCF1010CEFD1B4F5807F1BD008DCE4
:100AE000102C13D0202C16D0402C19D0802C0DD0D7
:100AF0001CE0B4F5007F13D0B4F5806F06D0B4F5D8
:100B0000006F08D0B4F5805F0AD00FE02946304668
:100B1000FFF7CCFC0AE029463046FFF78EFD05E0E2
:100B2000214601232846726800F056F8B8F1000FFC
:100B300004D0B1892846B268FFF738FB012F18BFEF
:100B4000BDE8F08100EE104AB7EE001A002CF8EE76
:100B5000400A81EE200A08BFBDE8F081A5F1080037
:100B600014F0010F0ED0D0ED020A60EE800AC0ED45
:100B7000020AD0ED030AF1EE600A60EE800AC0EDD1
:100B8000030A0830610808BFBDE8F081D0ED020A11
:100B900060EE800AC0ED020AD0ED030AF1EE600AB1
:100BA00060EE800AC0ED030AD0ED040A60EE800A10
:100BB000C0ED040AD0ED050AF1EE600A60EE800A8D
:100BC000C0ED050A1030491EE0D1BDE8F08130BC0F
:100BD000BDE8C04FFFF754BF2DE9FF4F2DED108B3F
:100BE00082B09FEDFEFA0B461C46DB084FF0000C6E
:100BF0000CEB030505EB030808EB030909EB0306FF
:100C000006EB030A00EBCC0700EBC60697ED001AD3
:100C1000D6ED000A0AEB030B00EBC50500EBCA0A90
:100C200031EE200A71EE601A95ED002ADAED000A25
:100C30000BEB030E00EBC80832EE201A00EBCB0BD7
:100C400032EE602AD8ED002ADBED000A00EBC9097C
:100C500000EBCE0E99ED003A9EED004A72EEA03AFE
:100C600072EEE02A73EE040A33EE443A70EE636AE1
:100C700070EE233A31EE600A71EE200A33EEA01ACC
:100C800073EEE00A87ED001AC6ED000A97ED011A2F
:100C9000D6ED010AD5ED013A98ED014A31EE206A10
:100CA00071EE600A9AED011A99ED015A73EE814ACC
:100CB00073EEC13A9BED011A34EE017A34EE411A1B
:100CC0009EED014A75EE045A35EE444A36EE475A17
:100CD00036EE076A34EEE57A74EEA54A76EE245ACB
:100CE00076EE644AC7ED015AC6ED014A76EE874AB0
:100CF000C8ED004A76EEC74ACBED004A75EE404A91
:100D000035EE000AC8ED014A8BED010A32EE430AC6
:100D100032EE032A20EE0F0A62EE0F4A33EEC42AA7
:100D2000A4448C4522EE0F3A33EE842A30EEC34AB7
:100D300062EE0F3A30EE833A31EEC02A31EE800A8D
:100D400071EE630A31EE231A72EEE41A72EEA42AEF
:100D500070EE013A30EE410AC5ED003A8EED000A20
:100D600032EE200A8AED000A32EE600A89ED000AAE
:100D700033EE620A85ED010A33EE220A8EED010A96
:100D800034EE610A8AED010A34EE210A89ED010A86
:100D9000FFF42EAF082B3FBF02B0BDEC108B04B0A8
:100DA00000F088B94FF0000CCDF804C04FF0010CF2
:100DB000CDF800C0DDF804C0159DAC444FEA8C05A9
:100DC00005EB0C07CDF804C007EB0C094FEA4C0803
:100DD00008EB0C0609EB0C0A02EBCC0C02EBC80882
:100DE00002EBC60602EBC50502EBC70702EBC90919
:100DF00002EBCA0A9CED00DA9CED018AD8ED00CA2C
:100E000096ED00CAD5ED00BA97ED00BAD9ED00AA6B
:100E1000DAED008AD8ED017A96ED01AA95ED017A16
:100E2000D7ED016A99ED016ADAED019ADDF800C0AB
:100E30000CEB0307FD1805EB030A0AEB030808EBAC
:100E4000030606EB030B00EBCC0900EBC808D9ED59
:100E5000000A98ED000A00EBC70700EBC606D7EDC5
:100E6000001A96ED001A70EE803A0BEB030E70EE4E
:100E7000C00A31EE810A00EBC50500EBCB0B31EE69
:100E8000C11AD5ED001A9BED002A00EBCA0A00EB4F
:100E9000CE0E31EE824A71EEC21A9AED002ADEEDD4
:100EA000002A32EE223A32EE622A73EEC42A73EE40
:100EB000843A30EE435A30EE030A33EE803A73EE52
:100EC000C0DA89ED003A99ED010A98ED013AD7EDC3
:100ED000013A95ED014A70EE03EA30EE433A96EDA1
:100EE000010A9AED01EADEED014A33EE809A73EED3
:100EF000C03A9BED010A74EE005A34EE404A3EEED1
:100F0000240A7EEE644A3EEEE5EA7EEEA55A79EECC
:100F100040EA39EE009A32EEAE0A72EEEE2A75EE33
:100F200089EA35EEC99A7EEE455AC9ED01EA3EEEF0
:100F3000055A2BEEADEA67EE09EA2BEE899A67EEC9
:100F40002DDA3EEE2EEA39EE6D9A88ED00EA67EE74
:100F5000A5DA88ED019A2CEE809A6CEEA55A27EE60
:100F6000800A39EE2D9A35EEC00A85ED009A66EEBC
:100F7000055A85ED010A2AEEA20A2AEE855A66EE86
:100F8000222A30EE250A8BED000A35EE620A73EE56
:100F9000A42A8BED010A31EE420A31EE021A33EE39
:100FA000E42A62EE8F3A20EE0F0A21EE0F1A22EEAB
:100FB0000F2A70EEC02A30EE800A71EEC10A71EE7F
:100FC000811A33EE421A33EE022A34EE633A34EEDB
:100FD000234A70EE043A30EE444A01E0F304353F10
:100FE00072EE834A72EEC32A32EE613A32EE210A81
:100FF00071EE601A71EE200A2DEE232A28EE031AF4
:101000002DEE033A68EE233AA44432EE011A28EE9C
:10101000842A8C4587ED001A33EE631A29EE843A50
:1010200087ED011A29EE801A28EE800A32EE011AA5
:1010300030EE430A26EEA42A8EED001A8EED010A48
:101040002BEE240A26EEA11A6BEE211A30EE010ACD
:101050002CEE221A86ED000A31EEC20A6AEE221A3E
:1010600086ED010A2AEE200A6CEE200A31EE000A13
:101070008AED000A30EEE10A8AED010AFFF4D8AEEB
:10108000DDF800C00CF1010CCDF800C063453FF65F
:1010900091AEDDF854C04FF6FF7404EACC0CCDF8E5
:1010A00054C0072B3FF6A0AD02B000F006B804B064
:1010B00000F000B830BCBDE8C08FBDEC088BBDECC3
:1010C00008CBFFF7F4BF2DE9F05F054600209246FC
:1010D0009B4688460646814640241BE028464146FA
:1010E0004746224600F06FFA53465A46C01A9141CD
:1010F00010D311461846224600F056FA2D1A67EB17
:1011000001084F4622460120002100F04DFA17EB5E
:1011100000094E41201EA4F10104DFDC484631469F
:101120002A46434600F000B830BCBDE8C09FD2B2AA
:1011300001E000F8012B491EFBD270470022F6E7C0
:1011400010B513460A4604461946FFF7F0FF20463D
:1011500010BD421E12F8013F002BFBD111F8013BDC
:1011600002F8013B002BF9D17047421C10F8011B1B
:101170000029FBD1801A704710B5002200E0521CF4
:10118000835C8C5CA34201D1002BF8D1D8B2E1B2D0
:10119000401A10BD034611F8012B00F8012B002A5C
:1011A000F9D1184670472DE9FE4F804681EA0300C9
:1011B000C00F0C46009021F0004123F00045B8EB31
:1011C0000200A94105D24046214690461C460B46E6
:1011D000024623F00040104347D0270DC7F30A0012
:1011E000C3F30A510290401A019040286BDAC3F30E
:1011F000130040F4801B0098924620B10023D2EBEC
:10120000030A63EB0B0B01985946C0F140025046AC
:1012100000F0CAF906460D4650465946019A00F0BC
:10122000E2F910EB08006141002487EA115284EAD8
:10123000E7731A4340D0009A62B3019A012A4FEA39
:10124000075215DC001B61EB02014FF0004202EA7D
:101250000752CDE90042001C41F5801132462B4671
:1012600000F019FA03B000F045B840462146F9E70E
:10127000001B61EB0201001C41F5801300185B416B
:101280002018A2F5001747EB030140EAD570B61904
:101290006D4111E06D084FEA360645EAC0754FEA28
:1012A0000752001B61EB0201001C41F58011490847
:1012B0004FEA30000019514132462B4603B000F08E
:1012C0001CB800F0D9B90098012240000023D0EBEF
:1012D000020263EBE073009821464FEAE074B8EB3A
:1012E000000061EB0401E9E783F000435BE781F074
:1012F000004158E730BCBDE8C08F30BCBDE8C04FEE
:10130000FFF7DFBF2DE9FE4F81EA030404F000443C
:1013100021F0004100944FF0000B23F0004350EA0D
:1013200001045ED052EA03045BD0C3F30A54C1F354
:101330000A552C44A4F2F3340194A0FB0254C1F3E7
:10134000130141F48011C3F3130343F4801301FB31
:10135000024400FB034E840A970A44EA815447EA98
:101360008357A4FB076802958D0A05FB07854FEAA2
:10137000932C04FB0C542705029D4FEA065847EABC
:101380001637B5EB08056EEB070C870E920E47EA91
:10139000811742EA8312A7FB0201B6EB0B0164EB53
:1013A00000042B0D43EA0C335E1844EB1C50DA4664
:1013B0005146E7FB0201C5F313044FEA0B3343EA3E
:1013C00014534FEA0432019C43EA0603A4F10C04CF
:1013D0000294009CCDE900B400F05DF903B000F088
:1013E00003B800200146F9E730BCBDE8C08F2DE905
:1013F000F04D81EA030404F0004B21F0004514464F
:101400004FF0000A23F0004150EA050220D054EAD0
:1014100001021DD0C5F30A570246C5F31303C1F3F9
:101420001300C1F30A5640F4801543F48013A7EB70
:101430000608101BD64608F2FD3873EB050002D3F0
:1014400008F1010801E092185B41B8F1000F03DADE
:1014500000200146BDE8F08D00204FF480110646C3
:1014600084460EE0171B73EB050705D3121B63EBD5
:10147000050306434CEA010C49084FEA3000921874
:101480005B4150EA0107EDD152EA030012D082EA33
:10149000040083EA0501084305D0101BAB4106D2C6
:1014A0000122002306E000224FF0004302E06FF02B
:1014B000010253101AEB06004CEB085110EB0A0026
:1014C00041EB0B01BDE8F04D00F0D6B80EB5C10FF1
:1014D00080EAE0700844CA07002140F233438DE8F7
:1014E0000E000A460B4600F0D6F803B000BD00F02F
:1014F000004230F000400AD0C10D01F56071C0F328
:10150000160042EA0151C20840071143704700200B
:101510000146704730B5041E71F1000404DB4FF042
:101520000044404264EB0101141E73F1000405DB2A
:101530001C464FF00043524263EB0403994208BF3C
:10154000904230BD01F0004330B421F0004150EA38
:10155000010206D00A0DA2F56072C1F31301002A40
:1015600002DC30BC00207047440F44EAC104C100D3
:10157000E01830BC00EBC25000F047B830B50B4665
:10158000014600202022012409E021FA02F59D42B3
:1015900005D303FA02F5491B04FA02F52844151E87
:1015A000A2F10102F1DC30BD202A04DB203A00FA6E
:1015B00002F1002070479140C2F1200320FA03F3AA
:1015C000194390407047202A04DB203A21FA02F0A8
:1015D0000021704721FA02F3D040C2F1200291406D
:1015E000084319467047202A06DBCB17203A41FAF8
:1015F00002F043EAE07306E041FA02F3D040C2F1A0
:10160000200291400843194670470029A8BF70473F
:10161000401C490008BF20F00100704710B4B0FA28
:1016200080FC00FA0CF050EA010404BF10BC7047C3
:1016300049B1CCF1200421FA04F411FA0CF118BFDD
:10164000012121430843A3EB0C01CB1D4FEA0061AC
:101650004FEA102042BF002010BC704700EBC3507F
:1016600010440029A4BF10BC7047401C490008BFAB
:1016700020F0010010BC704710B5141E73F1000477
:1016800008DA401C41F1000192185B411A4301D174
:1016900020F0010010BD2DE9F04D92469B4611B19E
:1016A000B1FA81F202E0B0FA80F220329046FFF700
:1016B0007BFF04460F4640EA0A0041EA0B0153460D
:1016C0005A46084313D0114653EA010019D0C8F115
:1016D00040025046FFF777FF05460E4650465946F2
:1016E0004246FFF761FF084305D0012004E0204691
:1016F0003946BDE8F08D0020054346EAE0762C43EC
:1017000037430A986305E40AA0EB08000022FD0AAB
:1017100044EA47540A3002D500200146E9E70105B2
:1017200010196941DDE9084500196941BDE8F04D2E
:10173000A2E72DE9F04D00231A461B1A8A4103DB6C
:1017400000200146BDE8F08DC1F30A52C1F3130138
:1017500041F480154FF0000BD10702D100186D4104
:10176000521E0027044640F2FF11384601EB620A80
:101770003E468046024600204FF48011FFF723FFCB
:10178000C2197141BB1846EB0100B4EB030C75EBB9
:10179000000C04D3E41A65EB000517460E46241925
:1017A00008F101006D4180463428E3DDF91946EB6C
:1017B0000600091BA84103D24FF0FF32134601E097
:1017C000002213461BEB070046EB0A51BDE8F04D23
:1017D000FFF752BFC1F30A52C1F3130140F2FF33C6
:1017E00041F480119A4202DA00200146704740F22B
:1017F00033439A42A2F2334202DC5242FFF7E3BE85
:10180000FFF7D2BE064C074D06E0E06840F001034A
:1018100094E8070098471034AC42F6D3FEF72AFD4F
:10182000087A0008287A000810B50146806AC26D5F
:1018300012F0500F05D0C26DD20623D500F080FB08
:1018400010BDC16D41F40071C16501680A681207DD
:1018500015D5CA6812F4406F0ED1C96889040029F1
:101860000ADBC16D21F48071C165C16DC90403D467
:10187000C16D41F00101C16500F060FB10BDC96898
:101880008907ECE7406D426BBDE810400846104701
:1018900010B5806AC16D41F04001C165016E41F033
:1018A0000401016600F04CFB10BD10B5806A00F029
:1018B00046FB10BDF8B50446002000902068816802
:1018C00001F00301012902D10168C90735D18168FE
:1018D0001B4A114222D18168D5432940491C8160AD
:1018E000184819490068B0FBF1F000EB8000400097
:1018F00000E0401E00900028FBD100F00DFF0646DE
:1019000016E0816811F0010F03D181682940491C5C
:10191000816000F001FF801B022809D9E06D40F0D2
:101920001000E065206E40F0010020660120F8BD47
:1019300020680168C943C907E3D10020F8BD000051
:101940003F0000804000002080841E0030B5044627
:10195000194887B0C26C42F00402C264C06C174BD5
:1019600000F004000590164A0020C1B1012914D1ED
:1019700033F8141002901348CDE9001052F82400F7
:10198000694600F0E9FD0D4D0022AD1E0F212857DC
:1019900000F03CFF285700F02DFF07B030BD33F8B2
:1019A0001410CDE9001002200290039052F8240098
:1019B000694600F0D1FDF0E7001002409265000892
:1019C0000800002000002110FEE70000014800F0A0
:1019D000C0BC00003829002030B590F8444004F025
:1019E0001C050124AC40056C6C600468636083686E
:1019F000102B036803D099600068C26030BD9A6004
:101A00000068C16030BD704710B504F08FFD03F071
:101A1000C3FFBDE8104003F0F3BF0000F0B504467B
:101A200090F8580000269BB00D4601280DD00120EB
:101A300084F85800324920680027884208D131498B
:101A4000009102F0EDF858B10EE002201BB0F0BD9D
:101A5000E06D40F02000E06584F858700120F5E763
:101A6000009802F0DDF848B1E06D40F02000E0653C
:101A70005FF0010684F858703046E7E722482A688C
:101A800040F61F71002A826822F460421FD0636B07
:101A900042EA43326B681A4382602268936803F01B
:101AA0000303012B02D11268D207E3D1009A926896
:101AB00002F00302012A03D1009A1268D207D9D199
:101AC000AB682A681A4383688B431A4315E0826027
:101AD0002268936803F00303012B02D11268D20736
:101AE000C8D1009A926802F00302012A03D1009A39
:101AF0001268D207BED182688A438260BAE70000CA
:101B00000000045000010450000304502DE9F84384
:101B100000270446009790F85800DFF8F4930D462C
:101B2000B846012811D0012684F85860206802F0D8
:101B300073F860B1E06D40F02000E0655FF00107F0
:101B400084F858803846BDE8F8830220FBE76868CF
:101B5000052812D8022807D0032807D0042807D068
:101B6000052807D0062007E00C2005E0122003E03E
:101B7000182001E04FF480706860A9884FF4407C21
:101B800001F440739CFAACFCBCFA8CFC206823FA8C
:101B90000CF300EB83002A6801F01F014FF01F0CCB
:101BA0000CFA01FC036BC2F3846223EA0C038A4043
:101BB000134303632068816811F00C0F24D1AA68D5
:101BC0002968B2F1004F20D002F02EF82068416958
:101BD00021F00041416120686969C268C2F3C10215
:101BE000520091402A69042A17D000EB82002B682A
:101BF000DFF820C3026E03F0F84302EA0C020B4345
:101C00001A4342F0004101667AE0002202F00CF82B
:101C10002068416941F00041DCE7002101F0F6FF56
:101C2000400320684FF0000173D001F0EFFF90FAFD
:101C3000A0F0B0FA80F1286842036FD090FAA0F0CB
:101C4000B0FA80F0814204D100221146206802F0EF
:101C50000EF80121206801F0D9FF400320684FF001
:101C600001015ED001F0D2FF90FAA0F0B0FA80F14D
:101C7000286842035AD090FAA0F0B0FA80F081426E
:101C800004D100220121206801F0F1FF0221206827
:101C900001F0BCFF400320684FF0020149D001F081
:101CA000B5FF90FAA0F0B0FA80F12868420345D061
:101CB00090FAA0F0B0FA80F0814204D10022022113
:101CC000206801F0D4FF0321206801F09FFF40034A
:101CD00020684FF0030134D001F098FF90FAA0F093
:101CE000B0FA80F12868420330D090FAA0F0B0FA40
:101CF00080F0814204D100220321206801F0B7FF67
:101D00002068816801F00301012925D121E000E06C
:101D100004E001F07BFFC0F384618CE7C0F38460D2
:101D200090E701F073FFC0F38461A1E7C0F3846022
:101D3000A5E701F06BFFC0F38461B6E7C0F38460F0
:101D4000BAE701F063FFC0F38461CBE7C0F38460BE
:101D5000CFE70168C9077DD12A7B296850F8B03FD9
:101D6000C1F3120C23EA0C0302F0200C4FF0FF32F7
:101D700002FA0CF20A40C2F312010B430360E96855
:101D800049456AD12868410317D090FAA0F1B1FA09
:101D900081F1491C09294FEA40312DD800290FD083
:101DA00090FAA0F1B1FA81F101F1010106FA01F610
:101DB00009D100BFC0F3846109E0C0F38461E8E7A2
:101DC000C0F38461F0E790FAA0F1B1FA81F101F17A
:101DD000010146EA816102D1C0F3846003E090FA18
:101DE000A0F0B0FA80F000EB40004FF4401202EB9C
:101DF000005041EA00012AE000290CD090FAA0F13D
:101E0000B1FA81F101F1010106FA01F606D100BF34
:101E1000C0F3846106E0C0F38461F3E790FAA0F1B7
:101E2000B1FA81F101F1010146EA816102D1C0F309
:101E3000846003E090FAA0F0B0FA80F0364A00EB3C
:101E4000400002EB005041EA000141F00071AA6835
:101E5000206800E001E001F0E7FEDFF8C0C029687B
:101E60002F4B304D3048614504D1826802F0E0725A
:101E700012020FD5994204D1826802F0E072D201B9
:101E800008D5A9427FF45CAE826802F0E07252028B
:101E90003FF556AE254A264E61451CD12168914238
:101EA00001D0B142EED18168826801F0E07141F465
:101EB000000122F0E0720A4382601E481E49006859
:101EC000B0FBF1F0C0EB0010C00000E0401E00903D
:101ED0000028FBD134E699420AD12168914201D011
:101EE000B142F7D1816801F0E07141F0807109E001
:101EF000A942EFD121689142ECD1816801F0E071F3
:101F000041F48001826822F0E0720A43826017E6A1
:101F100000007F4000F0FF03000050FE000052C7A9
:101F2000000084CB01000080000304500000045036
:101F3000000204504000002080841E00704770475B
:101F400070470000F8B54FF0000504002E460095DC
:101F500002D0E06D10B107E00120F8BD204600F08E
:101F6000FFF8266684F8586020688168C1F34071E4
:101F700019B18168714A1140816020688168C1F39C
:101F8000007191B981686E4A114041F080518160C1
:101F90006C486D490068B0FBF1F000EB8000400038
:101FA00000E0401E00900028FBD120688168C1F34A
:101FB000007141B9E16D41F01001E165216E41F020
:101FC000010121660125E16DC90602D401F024FE5C
:101FD00030B1E06D40F01000E06501252846F8BD05
:101FE000E06D20F4807040F00200E06521688868B0
:101FF00000F00300012802D10868C0073FD1534810
:10200000814212D1D0F8081101F00301012903D156
:10201000D0F80011C90732D1D0F8081201F003013D
:10202000012925D1D0F8000220E0494A9142816877
:1020300001F003010DD1012902D10168C9071ED1A8
:10204000D0F8081201F00301012907D1D0F80012DD
:1020500002E0012902D10168C90710D1D0F80811A6
:1020600001F00301012903D1D0F80001C00706D116
:10207000384960688A6822F47C1202438A60E16809
:10208000A06BE2690843A16841EA42310843616AF2
:1020900040EA0140012904D1218D2F4A02EB414140
:1020A0000843E16A29B101F47071226B014342EAED
:1020B00001002168CA68294B1A400243CA6020689F
:1020C000816811F00C0F14D1A169626B890341EA98
:1020D0004201226D1143C26844F206039A430A4347
:1020E000C260E06B01280CD02068016921F0010179
:1020F0000161206901282068016B21F00F0111D0D6
:1021000013E0D4E910010843D4E912121143084343
:1021100021680A6940F2FC739A43104340F00100C1
:102120000861E6E7226A521E11430163E06D20F068
:10213000020040F00100E06550E70000C0FFFF5FD3
:10214000C0FFFF7F4000002080841E00000004507C
:1021500000010450000304500000FEFF07C0F0FF20
:1021600070B505460068194986B088422CD11848D8
:10217000C16C41F40051C164C06C002600F40050F1
:102180000590032000900B20CDE901066946114817
:1021900000F0E2F9114C1048C4E900068020A66066
:1021A000C4E90360800060618000A0612020E061DC
:1021B00000022062204600F029F918B1972108A0FA
:1021C00002F095FB6C65A56206B070BD000004507E
:1021D0000010024000080048080002403829002092
:1021E0002E2E2F5372632F6164632E630000000054
:1021F0002DE9F047044690468946006801F00CFD41
:1022000018B102263046BDE8F08794F8580001283E
:102210001CD0012084F85800334D20680027A842C4
:1022200002D03249884213D1D5F80803C0060FD036
:10223000D5F8080300F01F00052809D0D5F80803D9
:1022400000F01F00092803D0012606E00220DAE78B
:102250002046FFF72FFB060002D084F85870D1E724
:10226000E06D40F60161884340F48070E0652068CD
:10227000A84206D01E49884203D0D5F80803C006FC
:1022800003D1E06D20F48010E065E06DC00404D55A
:10229000206E20F00600206600E02766616D15487C
:1022A000C862616D14480863616D14484863216811
:1022B0001C20086084F858702068416841F01001C3
:1022C00041602068C16841F00101C1602168434656
:1022D0004A464031606D00F0F9F820688168084A8C
:1022E0001140091D81608DE7000004500001045079
:1022F0000002045029180008AB18000891180008C3
:10230000C0FFFF7F10B590F825100024022903D0EC
:102310000421C16301241AE001680A6822F00E0258
:102320000A6001680A6822F001020A6090F844100D
:10233000036C01F01C02012101FA02F25A6080F8DC
:102340002510002180F82410816B01B188472046B8
:1023500010BDF0B4016C0C6801680D6890F8442061
:1023600002F01C06042202FA06F3234211D06B0786
:102370000FD50B689B0603D40B6823F004030B6096
:1023800090F8441001F01C018A40016C4A60016B16
:102390001DE0022303FA06F727424FF0000C4FF02E
:1023A000010218D0AF0716D50C68A40605D40C6836
:1023B00024F00A040C6080F8252090F8441001F005
:1023C0001C018B40016C4B6080F824C0C16A00295D
:1023D0001AD0F0BC08470823B340234214D02B077F
:1023E00012D50B6823F00E030B6090F84410036CB9
:1023F00001F01C0102FA01F15960C26380F8252046
:1024000080F824C0416BE2E7F0BC704770B568B15A
:102410002B4C036814212B4AA34209D22A4C1C449A
:10242000B4FBF1F18900C0E910210BE0012070BD7F
:10243000234C64421C44B4FBF1F1890041642049FF
:1024400008390164022180F825101C6847F6F071F4
:102450008C43D0E902152943D0E90456354329437A
:1024600085692943C5692943056A294321431960C0
:102470008168B1F5804F19D0036C0F21934202D1CE
:1024800052F8A83F02E00E4AA032136890F8444088
:1024900004F01C04A1408B43136090F84430416861
:1024A00003F01C0399401368194311600021C163B4
:1024B000012280F8252080F82410084670BD000015
:1024C0000804024000000240F8FFFDBF70B504465A
:1024D00090F82400002501280CD0012084F8240065
:1024E00094F825600020012E06D084F824000225EF
:1024F000284670BD022070BD022684F82560E06386
:102500002068066826F0010606602046FFF764FA98
:10251000206B00282068016802D041F00E0106E01F
:1025200021F0040101602068016841F00A010160A6
:102530002068016841F001010160D9E770B50446E7
:1025400000F0EAF80546601C00D0641C00F0E4F8D6
:10255000401BA042FAD370BD2DE9F84FDFF888B1D7
:1025600000234FF0010C4FF0030A4FF00F090BF15D
:10257000040EB1E00CFA03F632406FD04C68022C26
:1025800001D0122C11D1DC0800EB84073C6A5D07F6
:10259000ED0E09FA05F824EA0804D1F8108008FACB
:1025A00005F848EA0408C7F8208007685D0091F83C
:1025B00004800AFA05F408F00308A74308FA05F8AE
:1025C00048EA0708C0F800804F68012F05D0022FA5
:1025D00003D0112F01D0122F10D1D0F80880CF686E
:1025E00028EA0408AF4047EA080787604768B7430E
:1025F0000E79C6F300169E403E434660C668A64369
:102600008C68AC403443C4604C68E40063D5374CFC
:10261000256E45F001052566246E23F0030504F0C0
:1026200001040094324C2F19BD689C07260F09FA4B
:1026300006F4A543B0F1904F04D02E4CA04203D134
:10264000012421E000241FE02B4CA04201D10224F0
:102650001AE02A4CA04202D1032415E03BE0284CAA
:10266000A04201D104240FE0264CA04201D1052450
:102670000AE0254CA04201D1062405E0234CA042EB
:1026800001D1072400E00824B4402C43BC60DBF8EF
:1026900000405D464E689443F60300D514432C6019
:1026A000DEF8004075464E689443B60300D51443E7
:1026B0002C600D4D08352C684E689443F60200D509
:1026C00014432C60084D0C352C684E689443B602B8
:1026D00000D514432C605B1C0A6832FA03F47FF4C3
:1026E00049AF00F015B8000000040140001002409E
:1026F000000001400004004800080048000C0048A9
:10270000001000480014004800180048001C004851
:1027100018BCBDE8E08F0000014800687047000069
:102720003C00002002480168491C0160704700001D
:102730003C00002010B5032000F088F8002000F0D5
:1027400005F800F017F8002010BD000010B5044691
:1027500007484FF47A710068B0FBF1F000F02FFEEB
:1027600000222146501E00F051F8002010BD00004C
:10277000400000201E4808B5016E41F001010166CD
:10278000016E01F001010091816D41F08051816580
:10279000806D00F080500090032000F057F8002278
:1027A00011466FF00B0000F031F8002211466FF077
:1027B0000A0000F02BF8002211466FF0090000F02B
:1027C00025F800221146501F00F020F80022114683
:1027D000101F00F01BF800221146901E00F016F8A2
:1027E0000022BDE808401146501E00F00FB800005E
:1027F0000010024000F01F020121914040098000BA
:1028000000F1E020C0F8001170470000F0B40E4B5A
:102810001B680C46C3F30223C3F10705042D00D93E
:102820000425191D072901D2002300E0DB1E012623
:1028300006FA05F1491E214099409E40761E164039
:102840003143F0BC01F042BB0CED00E0064900F062
:10285000070208684FF6FF03184040EA0220034AC7
:1028600010430860704700000CED00E00000FA051E
:102870001549B0F5007F0868C0F3412009D002284F
:1028800005D0086820F4C06040F480600860002033
:1028900070470128FBD0086820F4C06040F4007045
:1028A00008600A480A4A0068B0FBF2F0322250433E
:1028B00000E0401E10B14A695205FAD4486940054B
:1028C000E5D5032070470000007000404000002064
:1028D00040420F000248416841F400714160704776
:1028E000007000400248006800F4C06070470000BB
:1028F000007000402DE9F84F044600270088EC4D99
:102900003E46010504F1200B1DD5A06E78B1B0F54F
:10291000800F11D0B0F5000F04D0B0F5400F22D0D9
:1029200001270FE0E86840F48030E8601BE00021F8
:10293000201D01F0DDFA03E00021584601F06EFB96
:10294000070010D03E462088C00426D5E06EC0B1F6
:10295000B0F1807F1AD0B0F1007F0DD0B0F1407F90
:1029600019D0012718E0D5F88800A16E20F44000A6
:102970000843C5F88800E6E7E86840F48030E8607E
:1029800009E00021201D01F0B3FA03E000215846C0
:1029900001F044FB0746F7B13E46206880033AD574
:1029A000A86D4FF00008C00009D4A86D40F0805019
:1029B000A865A86D4FF0010800F080500090DFF886
:1029C000F4A2DAF8001041F48071CAF80010FFF7A1
:1029D000A3FE814610E0D5F88800E16E20F040703B
:1029E0000843C5F88800D8E7FFF796FEA0EB09007A
:1029F000022801D9032705E0DAF80000C005F3D565
:102A0000002F7CD04FEA0706B8F1000F03D0A86D65
:102A100020F08050A8652078C00707D0D5F888003E
:102A2000A16B20F003000843C5F8880020788007D8
:102A300007D5D5F88800E16B20F00C000843C5F8F5
:102A400088002078400707D5D5F88800216C20F051
:102A500030000843C5F888002078000707D5D5F86E
:102A60008800616C20F0C0000843C5F88800207819
:102A7000C00607D5D5F88800A16C20F44070084343
:102A8000C5F888002078800607D5D5F88800E16C65
:102A900020F440600843C5F888002088800507D5E9
:102AA000D5F88800216E20F440200843C5F888003E
:102AB0002088400507D5D5F88800616E20F44010C5
:102AC0000843C5F888002078400607D5D5F8880067
:102AD000216D20F440500843C5F888002078000696
:102AE00007D5D5F88800616D20F440400843C5F84B
:102AF00088002088C00509D5D5F8880000E027E0C7
:102B0000A16D20F440300843C5F888002068C00259
:102B100007D5D5F89C00E16D20F003000843C5F807
:102B20009C0020884FF0006780044FF0806850D5EB
:102B3000D5F88800216F20F040600843C5F8880070
:102B4000206FB8423DD1E86840F48010E86040E072
:102B5000D5F8900010F4407015D0D4F88810814258
:102B600011D0D5F89000D5F8901020F4407041F4C1
:102B70008031C5F89010D5F8901021F48031C5F857
:102B80009010C5F89000C00711D0FFF7C5FD0746AB
:102B900041F2883907E000BFFFF7BEFDC11B494580
:102BA00001D9032630E7D5F890008007F4D5D5F891
:102BB0009000D4F8881020F440700843C5F89000C5
:102BC00022E7404505D10121201D01F091F900B116
:102BD00006462068000317D5D5F88800616F20F0FD
:102BE00040600843C5F88800606FB84204D1E868C7
:102BF00040F48010E86007E0404505D10121201D28
:102C000001F076F900B106462068400317D5D5F8E3
:102C10008800A16F20F040600843C5F88800A06FCD
:102C2000B84204D1E86840F48010E86007E040450D
:102C300005D10121201D01F05BF900B10646208875
:102C400040041AD5D5F88800E16F20F040500843C1
:102C5000C5F88800E06FB0F1805F03D0B0F1005F8D
:102C600005D00AE00221201D01F042F903E0022113
:102C7000584601F0D3F900B106462088000408D573
:102C8000D5F88800D4F8801020F080400843C5F8BB
:102C900088002068C00307D555F8880FD4F8841041
:102CA00020F0004008432860304600F005B80000DE
:102CB000001002400070004018BCBDE8E08F00002A
:102CC0002DE9F0470F46050058D03E4E306800F021
:102CD0000700B84209D2306820F00700384330605E
:102CE000306800F00700B84248D12878364CC00759
:102CF0002CD06868032811D0022812D0216898B11E
:102D0000490500293ADAA16821F003010143A160D5
:102D1000FFF702FD804641F2883910E02168890101
:102D2000EFE721688903ECE78907EAE7FFF7F4FC9E
:102D3000A0EB0801494502D90320BDE8F087A0684F
:102D4000696800F00C00B0EB810FEFD128788007A4
:102D500005D5A068A96820F0F0000843A06030689D
:102D600000F00700B8420BD9306820F00700384364
:102D70003060306800F00700B84201D00120DCE785
:102D80002878400705D5A068E96820F4E06008438A
:102D9000A0602878000706D5A068296920F4605053
:102DA00040EAC100A06000F03BF8A168074AC1F307
:102DB0000311515CC840064908600020FFF7C6FCBB
:102DC0000020BAE700200240001002409C65000885
:102DD00040000020014800687047000040000020CB
:102DE0000448054900688968044AC1F30221515C1E
:102DF000C84070474000002000100240DC65000819
:102E00000448054900688968044AC1F3C221515C3D
:102E1000C84070474000002000100240DC650008F8
:102E200030B52D49002318468A682C4C12F00C0F3F
:102E30004FEA640514D08A68C2F38102032A04D1E0
:102E4000CA6802F00302012A0AD08A68C2F381022A
:102E5000012A19D08A68C2F38102022A16D016E02C
:102E60000A68120704D4D1F89420C2F3032202E0C6
:102E70000A68C2F303121A4B53F822308A6812F020
:102E80000C0F04D1184602E0204600E028468A686C
:102E9000C2F38102032A1DD1C868CA6800F003008A
:102EA000C2F30212521C022804D0032805D0B3FB3F
:102EB000F2F004E0B4FBF2F001E0B5FBF2F0CA6816
:102EC000C968C2F306225043C1F34161491C49005D
:102ED000B0FBF1F030BD0000001002400024F4000F
:102EE000AC6500082DE9F84304007DD02078FF4D43
:102EF000C0065DD5A86810F00C0F0AD0A0690028A4
:102F0000286873D040F001002860FFF705FC0646F2
:102F100055E02868800702D5A0690028E5D0216A1D
:102F20002868000703D5286800F0F00004E0D5F811
:102F30009400F02202EA1010814216D9084601F0EE
:102F4000F1F8002850D1286840F00800286028686F
:102F5000216A20F0F000084328606868E16920F4E5
:102F60007F4040EA0120686015E0286840F00800D2
:102F700028602868216A20F0F0000843286068680B
:102F8000E16920F47F4040EA01206860206A01F096
:102F9000C9F80028D6D1FFF743FFA968D44AC1F386
:102FA0000311515CC840D34908600020FFF7CEFBF5
:102FB0002CE000BFFFF7B0FB801B02287ED82868FA
:102FC0008007F7D5286840F0080028602868216A43
:102FD00020F0F000084328606868E16920F47F4031
:102FE00040EA0120686011E0B2E0FFE720F0010054
:102FF0002860FFF791FB064605E000BFFFF78CFB5A
:10300000801B0228DAD828688007F7D42078C00708
:1030100048D0A868C0F3810002281DD0A868C0F37A
:103020008100032803D1E868C043800714D060689A
:10303000B0F5803F17D0B0F5A02F286817D020F446
:1030400080302860286820F4802028606068E0B123
:10305000FFF762FB064614E02868800322D560680B
:10306000002875D01EE0286840F48030EDE740F479
:1030700080202860F7E700BFFFF74EFB801B642825
:103080009CD828688003F7D50CE0FFF745FB06467F
:1030900005E000BFFFF740FB801B64288ED828683E
:1030A0008003F7D42078800742D5A868C0F3810058
:1030B000012816D0A868C0F3810000E0CEE0032804
:1030C00004D1E86800F0030002280AD0E068002874
:1030D00028681DD040F480702860FFF71DFB06466D
:1030E0000BE0286840050BD5E0680028B9D007E060
:1030F000FFF712FB801B022884D828684005F7D50B
:103100006868217C20F0FE4040EA016068600FE0C2
:1031100020F480702860FFF7FFFA064605E000BF44
:10312000FFF7FAFA801B0228AAD828684005F7D4CE
:103130002078000729D560690028D5F8940013D0BD
:1031400040F00100C5F89400FFF7E6FA064606E0F5
:1031500023E100BFFFF7E0FA801B02287ED8D5F8F4
:1031600094008007F6D510E020F00100C5F8940027
:10317000FFF7D2FA064604E0FFF7CEFA801B0228DA
:103180006CD8D5F894008007F6D42078400761D534
:10319000A86D0026C00008D4A86D40F08050A86536
:1031A000A86D012600F08050009053480168C905C1
:1031B00011D40168804641F480710160FFF7ACFAD8
:1031C000074604E0FFF7A8FAC01B022846D8D8F843
:1031D0000000C005F6D5A068012815D00528D5F84F
:1031E000900016D020F00100C5F89000D5F89000AE
:1031F00020F00400C5F89000A06841F28838B8B10A
:10320000FFF78AFA07460EE0D5F8900040F001007B
:10321000F0E740F00400C5F89000F5E7FFF77CFA0E
:10322000C11B41451AD8D5F890008007F6D50CE0AF
:10323000FFF772FA074604E0FFF76EFAC11B41453B
:103240000CD8D5F890008007F6D41EB1A86D20F0F8
:103250008050A8652078800629D500E084E0606A67
:103260000028D5F8980011D040F00100C5F898006A
:10327000FFF752FA064604E0FFF74EFA801B0228D9
:1032800072D8D5F898008007F6D510E020F001003C
:10329000C5F89800FFF740FA064604E0FFF73CFA4D
:1032A000801B022871D8D5F898008007F6D4A06A50
:1032B000F0B3A968C1F3810103296FD002282868FF
:1032C00020F0807028601BD02868000106D4286890
:1032D000800003D4E86820F00300E860E86807494C
:1032E0000840E860FFF718FA044651E00010024079
:1032F0009C6500084000002000700040FFFFEEFECB
:10330000FFF70AFA064604E0FFF706FA801B0228D8
:103310003BD828688001F7D4206B54F82C1F00019B
:1033200010380843218A1E4A490802EB415100E047
:1033300031E0A26841EA02210843217D4FF07E423C
:10334000490802EB41610843217B40EAC160E86023
:10335000286840F080702860E86840F08070E8607D
:10336000FFF7DAF9044606E00FE000BFFFF7D4F9F3
:10337000001B022809D828688001F7D50BE000BFA0
:10338000FFF7CAF9001B022802D90320BDE8F88321
:1033900028688001F4D40020F8E7FFE70120F5E772
:1033A0000000E0FF4FF0E0210428086903D020F07E
:1033B00004000861704740F00400FAE7704710B558
:1033C000401EB0F1807F01D3012010BD4FF0E024FA
:1033D00060610F21601700F079FD0020A0610720D7
:1033E0002061002010BD10B5FFF7E8FF10BD704749
:1033F0007047704770B590F83C20012A24D0012412
:1034000080F83C40022280F83D20026853689568AD
:103410000E4EB24202D00E4EB24203D123F47006D9
:103420004B68334323F070060B688968334325F0FB
:103430008005294353600268916080F83D40002177
:1034400080F83C10084670BD022070BD002C014081
:103450000034014010B5040003D094F83D0010B1D1
:1034600007E0012010BD002084F83C00204600F059
:103470000DF8022084F83D00211D206800F012FFA5
:10348000012084F83D00002010BD000008B5006850
:103490000B49884212D10B48816D41F002018165D0
:1034A000806D002200F00200009011461D20FFF701
:1034B000ADF9BDE808401D20FFF79CB908BD00002C
:1034C00000040040001002400168CA6842F0010296
:1034D000CA600068826807490A40062A08D08268E4
:1034E0000A40B2F5803F03D0016841F0010101605C
:1034F00000207047070001000168CA6822F001023D
:10350000CA600068016A41F21112114207D1016AD2
:103510009210114203D1016821F0010101600020E5
:103520007047000070B5044690F83C00012817D0A1
:10353000012584F83C50022084F83D002068826810
:10354000324E324022F47F4282600868502839D0DF
:103550000DDC202855D005DC98B3102843D150E06D
:10356000022070BD30284CD040283CD141E060287A
:1035700030D070280CD0B0F5805F03D0B0F5005F7C
:1035800031D112E020688168204A7032114016E083
:10359000CB68D1E90121206800F0E4FE2168886849
:1035A000304040F0770088601DE0CB68D1E9012110
:1035B000206800F0D7FE2068816841F48041816076
:1035C00011E01EE0CA684968206800F0DDFE502165
:1035D000206806E0CA684968206800F0E6FE6021BD
:1035E000206800F0C9FE84F83D50002084F83C00BB
:1035F00070BDCA684968206800F0C6FE4021206896
:10360000EFE7226801461046EBE7000088FFFEFF67
:10361000704770B50446006801694FF00005C94362
:10362000890715D4C168C943890711D4E91E01610E
:1036300001202077206880698007204602D0FFF7AC
:10364000E7FF04E000F0A7F8204600F0A5F8257792
:1036500020680169C943490717D4C168C9434907AC
:1036600013D46FF004010161022020772068806983
:1036700010F4407F204602D0FFF7CAFF04E000F0BC
:103680008AF8204600F088F8257720680169C94348
:10369000090716D4C168C943090712D46FF008019D
:1036A0000161042020772068C0698007204602D08D
:1036B000FFF7AEFF04E000F06EF8204600F06CF873
:1036C000257720680169C943C90617D4C168C94371
:1036D000C90613D46FF0100101610820207720681B
:1036E000C06910F4407F204602D0FFF791FF04E04C
:1036F00000F051F8204600F04FF825772068016966
:10370000C943C90708D1C168C943C90704D1891E83
:103710000161204600F042F820680169C9430906AA
:1037200009D4C168C943090605D46FF0800101615D
:103730002046FFF75DFE20680169C943C90509D429
:10374000C168C943090605D46FF480710161204640
:10375000FFF74DFE20680169C943490609D4C168D5
:10376000C943490605D46FF040010161204600F0CD
:103770003BF820680169C94389060BD4C168C94375
:10378000890607D46FF0200101612046BDE8704032
:10379000FFF72FBE70BD70477047000010B50D4990
:1037A00000680968884213D10D480B4A0B4C4168E8
:1037B000136844F821300B4B526843F82120491C10
:1037C0004160B1F5807F03D100214160012101708A
:1037D00010BD0000702C0020AC200020CC20002068
:1037E00034000020CC240020704770477047000050
:1037F0002DE9F04102680446D0691168936810F021
:103800000F0F4FF000055BD003F0010601F4907735
:10381000374369D0C70707D0CF0505D50127176201
:10382000626F42F001026267820708D5DA0706D0AC
:10383000276802223A62626F42F00402626742071E
:1038400008D5DA0706D0236804221A62626F42F0B4
:103850000202626702070AD501F02002324306D055
:10386000236808221A62626F42F008026267626F80
:10387000002A32D0800605D5880603D5216E09B10D
:1038800020468847606F000703D4206880684006A0
:1038900025D5204600F037FE20688168490619D5F5
:1038A000816821F040018160E06E98B12049816318
:1038B000E06EFEF727FD00280FD0E06E816B06E07A
:1038C000860611D58E060FD5216E1EE02046BDE876
:1038D000F04108472046FFF789FFBDE8F081204608
:1038E000FFF784FF6567F8E7C60209D55B0207D5D5
:1038F0004FF4801010622046BDE8F041FFF775BF1D
:10390000030605D50B0603D5616E0029DED1E4E779
:103910004006E2D54806E0D51168204621F0400176
:103920001160202184F87110656600F06DF9D4E70C
:10393000F344000810B5040003D094F8710010B1EE
:1039400007E0012010BD002084F87000204600F040
:1039500027F8242084F871002068016821F0010113
:103960000160204600F03AFE0128EBD0606A10B1F9
:10397000204600F02CFD2068416821F49041416010
:103980002068816821F02A0181602068016841F087
:10399000010101602046BDE8104000F07CBD000040
:1039A00030B5214D0468002120480222032387B04E
:1039B000AC4219D1C46D44F00104C465C06DCDE9B9
:1039C000021300F001000590D801CDE900020820A3
:1039D000049069461648FEF7BFFD002201214620EB
:1039E000FEF714FF46201BE0124DAC421AD1846D45
:1039F00044F480248465806DCDE9021300F48020B6
:103A000005903020CDE900020720049069460A485D
:103A1000FEF7A2FD002202212720FEF7F7FE272055
:103A2000FEF7E8FE07B030BD008000400010024005
:103A300000180048004800400008004830B590F8E1
:103A40007230202B4AD1B1B1AAB190F87030012B5D
:103A500044D0012380F870304165A0F85820A0F8C8
:103A60005A20002202661D038168FF23A94207D164
:103A7000016911B10CE0012030BD40F2FF110DE0F1
:103A80007F2419B1B1F1805F05D009E0016901BB64
:103A9000A0F85C3004E00169D9B13F21A0F85C10C6
:103AA0004267222180F8721001688B6843F001039D
:103AB0008B608168A94201D1016969B10849016639
:103AC00080F870200068016841F490710160002066
:103AD00030BDA0F85C40E3E70249F0E7022030BDCA
:103AE000834500082745000830B4164B01680022C2
:103AF000154899420ED1411C144C0B7881686354CF
:103B0000491C8160FF2900DD82600F490122491CA8
:103B10000F4811E00F4B994211D10B490C4C0B7817
:103B2000416878346354491C4160FF2900DD4260DC
:103B3000074801220449783830BCFFF77FBF30BC0A
:103B4000704700000048004028000020702B002033
:103B5000F8290020008000402DE9F843044690F841
:103B600071001F4616460D4620284BD1C5B1BEB187
:103B700094F87000012845D0012084F870004FF0BF
:103B80000008C4F87480212084F87100FEF7C4FD99
:103B9000A4F850608146A4F852604FF4805615E0B6
:103BA0000120BDE8F8838021204600F067FED8B9E7
:103BB000A068B04201D12069C0B115F8010B21689D
:103BC0000885B4F85200401EA4F85200B4F8520020
:103BD0004B464FF0000200970028E4D14FF040011F
:103BE000204600F04BFE30B10320DAE735F8020B37
:103BF000C0F30800E3E7202084F8710084F87080A7
:103C00000020CEE70220CCE77047FEE700EB810002
:103C1000006E00F0F84070478068C0F38000704785
:103C20008068C0F38000704770B54FF0007401F0F9
:103C3000007394FAA4F4B4FA84F4E3404FF0F874F7
:103C400094FAA4F501F0F871B5FA85F500EB83005C
:103C500021FA05F50726AE4094FAA4F44369B4FAB4
:103C600084F4E140B3438A401343436170BD00EBE9
:103C70008100016E21F00041114301667047000090
:103C80000148FFF7B5BD00008029002070B5264827
:103C90008AB024490024C0E90014042545610121AB
:103CA0008460C0E9034102260662C0E90641C0E91A
:103CB0000941C462C0E90C418463C463FEF742F960
:103CC00018B1522119A000F012FE06A91648069458
:103CD000FDF7A4FE18B15A2114A000F008FE174801
:103CE00000900620CDE901067F200594CDE903056B
:103CF00069460D48FDF70AFF18B167210BA000F0D7
:103D0000F6FD0F4800900C20019069460648FDF72B
:103D1000FDFE002803D0702104A000F0E8FD0AB0E9
:103D200070BD000000000450CC2800202E2E2F5320
:103D300072632F6164632E63000000000200300490
:103D400004006008094808B5816C41F001018164F4
:103D5000806C002200F00100009011460B20FEF75D
:103D600055FDBDE808400B20FEF744BD00100240A1
:103D700038B50E4CE06C40F00400E064E06C00F0FC
:103D800004000090E06C40F04000E064E06C00F063
:103D900040000090FEF79EFDE06C40F00100E06402
:103DA000E06C00F00100009038BD000000100240FF
:103DB0000E4810B50C4901604FF4E131416000211B
:103DC00081600C22C160C0E904128161016241621C
:103DD000FFF7B0FD002805D0BDE81040442104A045
:103DE00000F085BD10BD000000800040802900204B
:103DF0002E2E2F5372632F75736172742E63000021
:103E000010B5184888B01649016049F63F410024B2
:103E1000C0E901140121C0E903148461FFF71AFB12
:103E200018B1412110A000F062FD4FF480500390C2
:103E300003A90C48FFF776FB18B147210AA000F050
:103E400056FD0094694607480294FFF7D3FA00280C
:103E500003D04E2104A000F04AFD08B010BD0000C0
:103E600000040040702C00202E2E2F5372632F74FC
:103E7000696D2E63000000000E4810B50C4901600A
:103E80004FF4E1314160002181600C22C160C0E942
:103E900004128161C16101624162FFF74BFD00289C
:103EA00005D0BDE81040592103A000F020BD10BD91
:103EB00000480040F82900202E2E2F5372632F75E2
:103EC000736172742E630000FEE770470907090EE4
:103ED000002806DA00F00F0000F1E02080F8141D41
:103EE000704700F1E02080F8001470477047000030
:103EF0002DE9F041444C05468846E06800268107DC
:103F000028680DD0E16801F00301814216D1A8B103
:103F1000E0686968C0F30210401C88420ED120E0BE
:103F2000012804D0022805D0032807D108E0216821
:103F3000890701E021684905002907DB01265FE0C8
:103F40002168890302D421684903F5E7E1686A68BA
:103F50006FF00F0321F0730103EB021211430143D1
:103F6000E160206820F080602060FEF7D5FB074606
:103F700005E000BFFEF7D0FBC01B022837D8206841
:103F80000001F7D4B8F1000F18D0B8F1010F1DD01F
:103F9000287D4FF07E41400801EB4060A96840EA6F
:103FA00001202169194A114008432061206840F02E
:103FB00080602060FEF7B0FB07461AE0A868297B06
:103FC000000240EAC1602169114AECE7288A1149E0
:103FD000400801EB4050A96840EA012021690E4ADF
:103FE000E1E700BFFEF798FBC01B022801D90326BA
:103FF00006E020680001F5D52069A9690843206121
:104000003046BDE8F081000000100240FF80FFF95B
:10401000FF80FF070000E0FFFF809FFF2DE9F041D8
:104020003D4C06468846E0680025810730680DD083
:10403000E16801F00301814216D1A8B1E06871681E
:10404000C0F30210401C88420ED120E0012804D0A9
:10405000022805D0032807D108E02168890701E07C
:1040600021684905002907DB012551E02168890302
:1040700002D421684903F5E7E16872686FF00F0325
:1040800021F0730103EB021211430143E160206848
:1040900020F080502060FEF73FFB074605E000BFA0
:1040A000FEF73AFBC01B022829D820688000F7D40D
:1040B000B8F1000F15D0307C4FF07E41400801EB85
:1040C0004060B16840EA01206169144A1140084328
:1040D0006061206840F080502060FEF71DFB0746BD
:1040E0000FE0B068317B000240EAC16061690C4AB0
:1040F000ECE700BFFEF710FBC01B022801D9032527
:1041000006E020688000F5D5606971690843606148
:104110002846BDE8F081000000100240FF80FFF952
:10412000FF80FF07F8B51C4D06460024A86DC000AF
:1041300002D5FEF7D7FB0DE0A86D40F08050A865D2
:10414000A86D00F080500090FEF7CCFBA96D21F027
:104150008051A965B0F5007F04D0802E07D94FF0BB
:1041600003040AE0802E08D9A02E01D804E001D172
:10417000022402E0702E00D101240848016821F0D9
:10418000070121430160006800F00700A04201D050
:104190000120F8BD0020F8BD0010024000200240C0
:1041A000704710B5FEF7BEFABDE81040FFF71BB927
:1041B000F0B5B9B0602010272B9001260025239779
:1041C000CDE929650224CDE92D462820CDE930042A
:1041D0002F96329423A83394FEF784FE00B1FEE7B5
:1041E0000F2034900320CDE935053795042134A8FC
:1041F0003895FEF765FD00B1FEE744F22400109506
:1042000000904FF0805001961F9013950296CDE9D3
:1042100003740011CDE9064005946846FEF76AFB79
:1042200000B1FEE74FF40070FEF722FB00B1FEE79D
:10423000FEF7D0FD4FF47A71B0FBF1F0FFF7BFF855
:104240000420FFF7AFF800221146501EFEF7DEFAF9
:1042500039B0F0BD0D48016841F4700101600C48AF
:10426000016841F001010160002181600268094B91
:104270001A4002608214C260026822F48022026046
:1042800081610249C00380390860704788ED00E011
:1042900000100240FFFFF6EA0148FFF7BAB900003C
:1042A000702C00202DE9F0470268264B264D274E42
:1042B000274F284C4FF0804A984209D0504507D0EC
:1042C000A84205D0B04203D0B84201D0A04204D1E8
:1042D00022F0700C4A6842EA0C02DFF87CC0DFF87A
:1042E0007C80DFF87C9098420FD050450DD0A842DA
:1042F0000BD0B04209D0B84207D0A04205D06045EB
:1043000003D0404501D0484503D122F44075CA6826
:104310002A434D6922F080022A4302608A68C26201
:104320000A688262984207D0A04205D0604503D057
:10433000404501D0484501D109690163012141612E
:10434000BDE8F087002C0140000400400008004058
:10435000000C004000340140004001400044014096
:104360000048014010B5846842EA032224F47F44E7
:104370000A432243826010BD826822F070020A4321
:1043800042F007018160704710B5036A046A24F0A7
:1043900001040462846924F0F00444EA021423F066
:1043A0000A020A438461026210BD10B5036A23F059
:1043B000100303628369046A23F4704343EA023200
:1043C00024F0A00343EA01118261016210BD90F85C
:1043D0002410C90706D001684A68836A22F40032B3
:1043E0001A434A6090F82410890706D501684A6884
:1043F000C36A22F480321A434A6090F824104907B5
:1044000006D501684A68036B22F480221A434A6089
:1044100090F82410090706D501684A68436B22F416
:1044200000421A434A6090F82410C90606D5016874
:104430008A68836B22F480521A438A6090F82410B1
:10444000890606D501688A68C36B22F400521A43B4
:104450008A6090F82410490611D501684A68036CF7
:1044600022F480121A434A60016CB1F5801F06D114
:1044700001684A68436C22F4C0021A434A6090F80B
:104480002410090606D501684A68806C22F40022CF
:1044900002434A607047F8B5002604464667FEF7B7
:1044A0003BF90546206800686FF07E47000708D595
:1044B0002B4600224FF400112046009700F0DEF951
:1044C00060B92068006840070AD52B4600224FF4E7
:1044D00080012046009700F0D1F908B10320F8BD13
:1044E000202084F8710084F8720084F87060002045
:1044F000F8BD10B5806A0021A0F85A10A0F852103B
:10450000FFF774F910BD01680A6822F490720A601E
:1045100001688A6822F001028A60202180F8721006
:1045200000210166704710B5B0F85C2090F8723039
:104530000168222B04D0088B40F00800088310BDCE
:10454000898C436D11401980416D891C4165B0F81B
:104550005A10491E0904090CA0F85A10EFD101683D
:104560000A6822F490720A6001688A6822F00102E7
:104570008A60202180F8721000210166FFF7B4FAEA
:1045800010BD10B5B0F85C2090F872300168222B95
:1045900004D0088B40F00800088310BD898C1140BE
:1045A000426D531C43651170B0F85A10491E09043E
:1045B000090CA0F85A10F0D101680A6822F4907230
:1045C0000A6001688A6822F001028A60202180F86E
:1045D000721000210166FFF787FA10BD2DE9F04146
:1045E0000446016880682369E669184363691025F9
:1045F000002733431843954A0B68954E33400343D5
:104600000B6020684168E36821F440511943416020
:104610002168A069914201D0236A18438B6823F472
:10462000306303438B608B4B21688B4899420DD1DB
:10463000D0F8880010F0030006D001285AD00228D4
:1046400056D0032859D157E0012556E0834B9942B3
:104650000BD1D0F8880010F00C0047D0042849D0C6
:10466000082845D00C2848D146E07D4B99420BD113
:10467000D0F8880010F0300038D010283AD0202828
:1046800036D0302839D137E0764B99420BD1D0F86B
:10469000880010F0C00029D040282BD0802827D0D7
:1046A000C0282AD128E0704B99420ED1D0F888005A
:1046B00010F440701AD0B0F5807F1BD0B0F5007FA9
:1046C00016D0B0F5407F18D116E0914215D1D0F840
:1046D000880010F4406009D0B0F5806F0AD0B0F5C2
:1046E000006F05D0B0F5406F07D105E0002504E06C
:1046F000022502E0042500E008255C4B00264FF46B
:10470000004091423DD135B1022D07D0042D07D094
:10471000082D10D107E0FEF763FB03E0184602E026
:10472000FEF77EFBA8B3626802EB4201814202D829
:10473000B0EB023F01D9012775E0DFF834815DB1AC
:10474000022D0CD0042D13D0082DF4D150082905CA
:10475000401846F1000105E0FEF742FB0AE0500870
:104760004449F5E70023FCF7AEFCA0F5407156E0A4
:10477000FEF756FB6268010E0302500818187141DB
:10478000F0E7E1694FF6EF7881422FD1092DD2D2BF
:1047900000E048E0DFE805F00609200523050505EF
:1047A0002600C8E7FEF71CFB01E0FEF729FB4100ED
:1047B000D4F8040001EB5001B1FBF0F080B2A0F19D
:1047C00010014145B7D84FF6F0710140C0F34200E7
:1047D00001432068C16026E027496068EAE7FEF7E8
:1047E0001FFBE4E74FF480316068E3E7092DA2D2B4
:1047F000DFE805F006091E052205050525009AE7F4
:10480000FEF7EEFA01E0FEF7FBFA0146606801EB05
:10481000500100BFB1FBF0F080B2A0F110014145A2
:1048200089D82168C860266638466666BDE8F0818A
:10483000606803EB5001EDE7FEF7F2FAE5E7616827
:1048400000EB5100B0FBF1F0E6E700000080004013
:10485000F369FFEF003801400010024000440040BF
:1048600000480040004C0040005000400024F4008C
:10487000FFFC0F00000024F40048E8012DE9F0419E
:10488000984617460E460446069D1DE0681C1BD040
:104890002DB1FDF741FFA0EB0800A84214D9206814
:1048A000016821F4D07101602068816821F0010164
:1048B0008160202084F8710084F87200002084F860
:1048C00070000320BDE8F0812068C06936EA00006E
:1048D00004D00020B842D9D00020F3E70120F9E746
:1048E0000148FEF785BF0000F8290020FEE7FEE73B
:1048F0000FB4054B10B503A9044A029800F040FC20
:1049000010BC5DF814FB00004D5A00084400002064
:1049100003B401984100009850EAC12018BF042058
:104920004A0D18BF40F0010040F2FF72B2EB515F38
:1049300008BF40F00200012808BF052002B0704700
:1049400070B59B482DED020B2DED068B079D25F0D4
:104950000044A04218DC9748844202DC0AD1069841
:1049600040B19DED060BBDEC068B02B0BDE870407A
:1049700000F003BB002DCCBF9FED8F0B9FED900B84
:10498000BDEC068B02B070BD8F48A04215DD8F488C
:10499000A042D8BF4FF0FF3458DD9DED060B51EC1F
:1049A000100BFFF7B5FF042808BF00F0FDFA9DEDDE
:1049B000060BBDEC068B02B070BD9DED060B51ECF5
:1049C000100B01F011F8CDE9060181489FED828BB3
:1049D000A0423CDD8248A0421FDD00249FED82AB57
:1049E0009DED060B53EC1A2B51EC100BFCF7DBFB87
:1049F0009DED060B41EC190B53EC1A2B51EC100BEF
:104A0000FCF780FC53EC182BFCF76EFC53EC192BD5
:104A1000FCF7EDFCCDE9060149E09DED060B012414
:104A200053EC182B51EC100BFCF7BDFB9DED060B66
:104A300041EC190B53EC182B51EC100BFCF754FC08
:104A400053EC192BFCF7D3FCCDE906012FE06848A5
:104A5000A0421FDD02249FED689B9DED060B53ECE9
:104A6000192B51EC100BFCF74DFC53EC182BFCF7F9
:104A70009AFB9DED060B41EC180B53EC192B51ECF6
:104A8000100BFCF731FC53EC182BFCF7B0FCCDE914
:104A900006010CE09DED060B032453EC102B9FED5B
:104AA000580B51EC100BFCF7A2FCCDE906019DED73
:104AB000060B53EC102B51EC100BFCF723FC41ECD4
:104AC000180B53EC182BFCF71DFC41EC190B4E484E
:104AD0000621B0EE490AF0EE690A784400F0D1F9F7
:104AE00053EC182B51EC100BFCF70CFC41EC180BA1
:104AF0004648B0EE490AF0EE690A0521784400F014
:104B0000C0F953EC192B51EC100BFCF7FBFB41ECFB
:104B1000100B51EC180B53EC102B002C0EDAFCF799
:104B200042FB9DED061B53EC112BFCF7EBFB9DEDBF
:104B3000061B53EC112BFCF7DAFB35E0FCF733FBDB
:104B40009DED061B53EC112BFCF7DCFB41EC100B2D
:104B50002F48784400EBC40090ED001B51EC100B83
:104B600053EC112BFCF7C0FB9DED061B53EC112BF6
:104B7000FCF7BAFB41EC100B2648784400EBC4006C
:104B800090ED001B51EC100B53EC112BFCF7AFFB1D
:104B900041EC100B002DA2BFBDEC068B02B070BD26
:104BA00051EC100B81F0004141EC100B01E70000CB
:104BB000000010440000F07F182D4454FB21F93F01
:104BC000182D4454FB21F9BF0000DC3F0000203EBB
:104BD0000000F33F00000000000000000000F03F74
:104BE0000000E63F00000000000000000000004060
:104BF0000080034000000000000000000000F83FBB
:104C0000000000000000F0BFF22E0000A82E0000FF
:104C1000322E0000EA2D000070B56B4E2DED040B16
:104C20002DED028B82B0DDF81CC0DDE905235C426E
:104C30002CF000411C4341EAD474049D22F0004052
:104C4000B44205D86C422C4340EAD474B4420BD928
:104C50009DED061B9DED040B02B0BDEC028B04B074
:104C6000BDE8704000F093B9ACF14054A4F17F640A
:104C70001C430BD0022404EAAC7444EAD27405430A
:104C80009FED538B9FED542B07D015E09DED040B4A
:104C900051EC100B00F00EFE42E0002C11BF012C75
:104CA0009DED040B02B0BDEC028B04BF04B070BDDF
:104CB000022C38D0032C3BD00B439FED491B9FEDBA
:104CC0004A0B0AD0B14218D1B04209D121F080413B
:104CD00020F08040079105900FE0002A15DA10E0DF
:104CE000434B7B44002C08BF93ED000B0DD0012CEF
:104CF00010D0022C17D0032C1AD0B0421DD1002A9C
:104D000003DAB0EE410AF0EE610A02B0BDEC028BAC
:104D100004B070BD93ED000B51EC100B81F000411D
:104D200041EC100BF1E7B0EE480AF0EE680AECE750
:104D3000B0EE420AF0EE620AE7E7401A00153C289E
:104D4000C8BF8DED000B19DCBCF1000FBEBF10F128
:104D50003C0F9FED290B8DED000B0FDB9DED060B3E
:104D600053EC102B9DED040B51EC100BFCF73FFBAB
:104D700000F03AFE00F09EFDCDE90001002C08BFD6
:104D80009DED000BC1D0012C10D0022C9FED1C0B0F
:104D900053EC102B9DED000B51EC100B0DD0FCF7DC
:104DA000A3FA53EC182BFCF79FFAB9E7019880F0AF
:104DB000004001909DED000BA7E7FCF795FA53EC3E
:104DC000182BFCF794FAABE70000F07F000000001E
:104DD000182D4454FB210940182D4454FB2109C0CF
:104DE000182D4454FB21F9BF182D4454FB21F93FE1
:104DF0001A2D00000000000000000000000000006C
:104E0000075C143326A6A13C00B52DED048BB0EE53
:104E1000409AF0EE609A83B051EC190BFCF789FCD4
:104E200041EC180B18EE100A18EE901A8DED008B5D
:104E3000002818BF0120084320F00040C0F17F6027
:104E400000F1E040C00F14D019EE101A19EE900ACC
:104E50008DED009B002918BF0121084320F0004080
:104E6000C0F17F6000F1E040C00F04BF012000F0FE
:104E7000BBF8B0EE480A03B0F0EE680ABDEC048B54
:104E800000BD70B504462DED028B4D1E00EBC50034
:104E9000B0EE408AF0EE608A90ED000B35F006002F
:104EA00017D053EC182B51EC100BFCF72BFA41ECFC
:104EB000100B6D1E04EBC50090ED001B51EC100BA8
:104EC00053EC112BFCF76FF941EC100B35F0060099
:104ED000E7D1022D36D0042D1CD0062D1CBFBDEC11
:104EE000028B70BD53EC182B51EC100BFCF70AFA37
:104EF00094ED0A1B53EC112BFCF755F953EC182BCE
:104F0000FCF700FA94ED081B53EC112BFCF74BF95E
:104F100041EC100B53EC182B51EC100BFCF7F2F991
:104F200094ED061B53EC112BFCF73DF953EC182BB9
:104F3000FCF7E8F994ED040B53EC102BFCF733F974
:104F400041EC100B53EC182B51EC100BFCF7DAF979
:104F500094ED021B53EC112BFCF725F953EC182BA5
:104F6000FCF7D0F994ED001B53EC112BFCF71BF967
:104F7000BDEC028B41EC100B70BD10B553EC102B47
:104F800051EC100BFCF70FF941EC100B10BD10B5F4
:104F900053EC112B51EC100BFCF705F941EC100B05
:104FA00010BD0000000000009FED050B10B553EC94
:104FB000102B51EC100BFCF7A5F941EC100B10BDB8
:104FC000000000000000001002E008C8121F08C125
:104FD000002AFAD170477047002001E001C1121F7A
:104FE000002AFBD1704700000149086070470000AB
:104FF000500000202DE9FF5F82B00021DDE9043080
:10500000020DDDF840B0034318D044F61050A2F270
:10501000FF3242431514119801281FD0A5EB0B0055
:10502000401C5FEA000A4FF000064E4FDFF838914F
:10503000B046504615D5CAF1000413E0119801247A
:105040004AA3012801D16FEA0B010298119AC0E925
:105050000031C0E9024206B000F08EB8CBF100008A
:10506000DFE704460021404A491842EB0450CDE9ED
:10507000001012E0E00707D032463B464046494662
:10508000FCF740F98046894632463B4610461946B1
:10509000FCF738F906460F466410002CEAD1DDE92A
:1050A0000401DDE90023BAF1000F06DAFCF72AF962
:1050B00042464B46FCF726F905E0FCF798F94246D4
:1050C0004B46FCF794F904460E460022284BFCF7A9
:1050D00021FA03D84FF0FF30014607E00022254BAC
:1050E00020463146FCF75FF8FCF774FB102409E01A
:1050F000002C0ADB0A220023FBF7E5FF039B30327A
:105100001A55641E50EA0102F2D1641C039AC4F1DC
:1051100011031444119A012A03D0012208430DD12E
:105120000AE0084304D000204FF0110B119072E701
:10513000A3EB0B056D1E0DE05B4504DD4FF0000297
:1051400005F1010504E003DA4FF00002A5F10105C5
:10515000002AECD002981199C0E90231C0E900455B
:1051600079E70000000014400000F03F300000002C
:105170000000F0430000E03F30BCBDE8C09F0000ED
:105180002DE9FF4F95B09B468946064600250FE264
:10519000252877D100242746F84A0121059400E00C
:1051A000044316F8013F203B01FA03F01042F7D107
:1051B00030782A2811D06FF02F033078A0F1300218
:1051C000092A16D8059A44F0020402EB820203EB86
:1051D00042021044761C0590EFE759F8042B059223
:1051E000002A03DA504244F40054059044F00204CB
:1051F000761C30782E2816D116F8010F44F00404DE
:105200002A280DD06FF02F023078A0F13003092B3F
:1052100009D807EB870302EB4303C718761CF3E7B3
:1052200059F8047B761C30786C280FD006DC4C28AB
:1052300017D068280DD06A2814D104E0742810D043
:105240007A280FD10DE044F400140AE044F48014ED
:1052500001E044F440147278824202D104F58014D3
:10526000761C761C307866280BD013DC582877D053
:1052700009DC002875D04528F6D04628F4D0472808
:105280001AD19DE118E0632835D0642879D06528CB
:1052900012D195E1702873D008DC6728F1D0692815
:1052A0006FD06E280DD06F2806D1B5E073282CD0B2
:1052B000752875D0782874D05A46179990476D1C78
:1052C00075E1C4F30250022809D003280DD0D9F8A3
:1052D000001004280DD00D6009F1040967E1D9F828
:1052E0000010EA17C1E90052F6E7D9F800100D8066
:1052F000F2E70D70F0E719F8041B8DF8001000209C
:105300008DF80100EA46012003E059F804AB4FF0A4
:10531000FF3061074FF0000102D40DE008F10101F8
:105320008846B9420FDA8045F8DB1AF808100029E0
:10533000F4D108E008F1010188468142FADB1AF84D
:1053400008100029F6D105985B46A0EB0807214616
:105350003846179A00F097FA284400EB080507E052
:105360004DE029E10DE01AF8010B5A4617999047D4
:10537000B8F10108F7D25B4621463846179A13E187
:1053800042E00A220092C4F302524FF0000A022ABD
:1053900008D059F804CB032A4FEAEC710AD00DE08B
:1053A00029E02AE009F1070121F00702F2E802C131
:1053B000914609E00FFA8CFC4FEAEC71042A03D104
:1053C0004FFA8CFC4FEAEC71002907DA0A460021FB
:1053D000DCF1000C61EB02012D2202E0220504D574
:1053E0002B228DF80420012203E0E20701D02022C5
:1053F000F7E7904659E00A2102E010220DE0102163
:105400004FF0000A00910BE010224FF0000A44F028
:1054100004040827009203E008224FF0000A0092DB
:10542000C4F30252022A05D059F804CB0021032A02
:1054300008D009E009F1070121F00702F2E802C1F2
:10544000914605E01FFA8CFC042A01D10CF0FF0CF8
:105450004FF00008220728D5702806D0009B83F063
:10546000100353EA0A0305D00EE040228DF8042011
:10547000012208E05CEA010206D030228DF8042007
:105480008DF8050002229046009B83F0080353EA42
:105490000A030AD15CEA010201D1620705D5302274
:1054A0008DF804204FF001087F1E582804D034A046
:1054B00003900EA802900DE036A0F9E7534660462F
:1054C000009AFBF700FE84460398825C0298401E17
:1054D000029002705CEA0100F0D1029806A9081A55
:1054E00000F1200A600702D524F4803400E001278F
:1054F000574502DDA7EB0A0000E0002000EB0A019F
:10550000009005984144401A0590E00306D45B469C
:105510002146179A059800F0B6F90544002706E0E1
:1055200001A85A46C05D179990476D1C7F1C4745DE
:10553000F6DBE0030CD55B462146179A059800F090
:10554000A2F9054404E030205A46179990476D1C93
:105550000099481E00900029F5DC08E002980299A5
:105560005A460078491C0291179990476D1CBAF170
:105570000001AAF1010AF1DC65E10000092801003F
:1055800030313233343536373839616263646566B9
:10559000000000003031323334353637383941427B
:1055A000434445460000000000F05BF90544761CCA
:1055B000307800287FF4ECAD19B0284600F04EB9E1
:1055C000620700D4062709F1070222F0070CFCE865
:1055D0000223E14603F000485FEA080C02D00FF214
:1055E000702C0DE05FEA045C02D50FF2682C07E036
:1055F0005FEAC47C02D00FF2602C01E0AFF2700CC5
:105600004FF0FF3823F00043CDF850C065280CD090
:1056100006DC452809D046281DD047283DD13DE06D
:10562000662818D067287ED138E00021112F01DBD1
:10563000112000E0781CCDE9000106A90EA8FFF7B3
:10564000D9FCDDE90F010E9A03910021009207F1C8
:10565000010A04914DE04FF000400097CDE90110A0
:1056600006A90EA8FFF7C6FCDDE90F0203920E9B08
:1056700011990022DDF80CA00093049211B9791C55
:1056800000EB010AB7EB0A0004D4C0F1FF3007F1C8
:10569000010A0490AAEB0700019044E0012F00DA10
:1056A00001270021112F01DD112000E03846CDE94E
:1056B000000106A90EA8FFF79DFCDDE90F010E9A77
:1056C0000391002104910092BA4621070CD403995A
:1056D000514500DA8A46BAF1010F05DD009AAAF1B8
:1056E0000101515C302908D0B84202DA10F1040FF0
:1056F00006DA0121CDE9011015E0AAF10101E9E77F
:10570000002805DC049901440491AAEB000102E0A1
:10571000411C514500DD8A460499401A401C019005
:105720004FF000400290200704D40198504501DB5F
:10573000CDF8048000208DF84F0002980DF14F073E
:10574000B0F1004F25D02B200E9002984FF00208A8
:1057500000280CDA404202902D200E9007E00A212A
:105760000298FBF70BFF3031029007F8011DB8F1EA
:105770000001A8F10108F2DC02980028EFD1791E9F
:105780000E980870307800F0200040F0450007F8CF
:10579000020D12A8C01B00F107081498007800B190
:1057A000012000EB0A01019801EBE07105984144EA
:1057B000401A401E0590E00306D45B462146179A26
:1057C000059800F060F805441498007818B15A461E
:1057D000179990476D1CE00324D55B462146179A24
:1057E000059800F050F805441CE00498002807DBF9
:1057F000DDE90301884203DD0098405C179901E070
:10580000179930205A469047049805F10105401C2D
:1058100004900198401E019004D12E205A461799F9
:1058200090476D1CBAF10001AAF1010ADDDC05E028
:1058300017F8010B5A46179990476D1CB8F10001F3
:10584000A8F10108F4DC5B462146179A0598ABE6FF
:105850002D0000002B0000002000000030BCBDE83F
:10586000C08F2DE9F041044600251E4617468804E6
:1058700004D405E039462020B0476D1C641EF9D5DC
:105880002846BDE8F0812DE9F041044600251E467A
:105890009046C80301D5302700E02027880404D5AE
:1058A00005E041463846B0476D1C641EF9D52846D0
:1058B000BDE8F08110B541EC100BFFF741F851EC59
:1058C000100B10BD70B505462DED028B5FF0000486
:1058D0009FED0D8B05EBC40090ED000B53EC102BEE
:1058E00051EC100BFBF70EFD53EC182BFBF75BFC98
:1058F00041EC180B641C0B2CECDBB0EE480AF0EE0C
:10590000680ABDEC028B70BD0000000000000000C2
:1059100070B59FED0A0B05465FF0000405EBC4006F
:1059200090ED001B51EC100B53EC112BFBF73BFCE3
:1059300041EC100B641C0B2CF0DB70BD0000000070
:105940000000000070B50D462DED028B06469FED60
:10595000108B002405EBC40090ED000B06EBC40097
:1059600053EC102B90ED001B51EC110BFBF7CAFC14
:1059700053EC182BFBF717FC41EC180B641C0B2C99
:10598000E8DBB0EE480AF0EE680ABDEC028B70BDB1
:10599000000000000000000070B5114D9FED110ADD
:1059A000A5F5C054002004F5E05604F5406200BFA0
:1059B00005EB800104EBC003D1ED000A06EB80018A
:1059C000C3ED000AD1ED000A02EBC001401CC1ED9D
:1059D000000A83ED010A81ED010AFF28E8DD70BDB0
:1059E000AC1800200000000082B0CDE9000121F0D9
:1059F000004001909DED000B02B051EC100B704780
:105A000010B5012300220C490C48FBF73BF8012399
:105A100000220B490948FBF735F84FF48074224601
:105A200008490548FAF7C4FC2246BDE8104006497B
:105A30000348FAF7BDBC0000AC000020E465000894
:105A4000AC0C0020AC080020AC14002013B54FF6BD
:105A5000FF73012269460248FEF77EF800981CBDDC
:105A60008029002010B5002821D0114B0022001FF2
:105A7000196803E0814203D80A4649680029F9D130
:105A800052B11368841A9C4204D100681844106013
:105A9000104602E0506000E0186039B102680B1A4D
:105AA000934203D10B681A4402604968416010BDFB
:105AB00048000020FCF73EFEFEF77AFBFEF758F99F
:105AC000FEF740F9FEF774F9FEF79AF9FEF7DEF8F3
:105AD000FEF7D2F901224D494D48FDF7AFFF0122F3
